{
    "contractName": "USDTToken",
    "abi": [
        {
            "inputs": [],
            "stateMutability": "nonpayable",
            "type": "constructor"
        },
        {
            "anonymous": false,
            "inputs": [
                {
                    "indexed": true,
                    "internalType": "address",
                    "name": "owner",
                    "type": "address"
                },
                {
                    "indexed": true,
                    "internalType": "address",
                    "name": "spender",
                    "type": "address"
                },
                {
                    "indexed": false,
                    "internalType": "uint256",
                    "name": "value",
                    "type": "uint256"
                }
            ],
            "name": "Approval",
            "type": "event"
        },
        {
            "anonymous": false,
            "inputs": [
                {
                    "indexed": true,
                    "internalType": "address",
                    "name": "delegator",
                    "type": "address"
                },
                {
                    "indexed": true,
                    "internalType": "address",
                    "name": "fromDelegate",
                    "type": "address"
                },
                {
                    "indexed": true,
                    "internalType": "address",
                    "name": "toDelegate",
                    "type": "address"
                }
            ],
            "name": "DelegateChanged",
            "type": "event"
        },
        {
            "anonymous": false,
            "inputs": [
                {
                    "indexed": true,
                    "internalType": "address",
                    "name": "delegate",
                    "type": "address"
                },
                {
                    "indexed": false,
                    "internalType": "uint256",
                    "name": "previousBalance",
                    "type": "uint256"
                },
                {
                    "indexed": false,
                    "internalType": "uint256",
                    "name": "newBalance",
                    "type": "uint256"
                }
            ],
            "name": "DelegateVotesChanged",
            "type": "event"
        },
        {
            "anonymous": false,
            "inputs": [
                {
                    "indexed": false,
                    "internalType": "address",
                    "name": "account",
                    "type": "address"
                }
            ],
            "name": "Paused",
            "type": "event"
        },
        {
            "anonymous": false,
            "inputs": [
                {
                    "indexed": true,
                    "internalType": "bytes32",
                    "name": "role",
                    "type": "bytes32"
                },
                {
                    "indexed": true,
                    "internalType": "bytes32",
                    "name": "previousAdminRole",
                    "type": "bytes32"
                },
                {
                    "indexed": true,
                    "internalType": "bytes32",
                    "name": "newAdminRole",
                    "type": "bytes32"
                }
            ],
            "name": "RoleAdminChanged",
            "type": "event"
        },
        {
            "anonymous": false,
            "inputs": [
                {
                    "indexed": true,
                    "internalType": "bytes32",
                    "name": "role",
                    "type": "bytes32"
                },
                {
                    "indexed": true,
                    "internalType": "address",
                    "name": "account",
                    "type": "address"
                },
                {
                    "indexed": true,
                    "internalType": "address",
                    "name": "sender",
                    "type": "address"
                }
            ],
            "name": "RoleGranted",
            "type": "event"
        },
        {
            "anonymous": false,
            "inputs": [
                {
                    "indexed": true,
                    "internalType": "bytes32",
                    "name": "role",
                    "type": "bytes32"
                },
                {
                    "indexed": true,
                    "internalType": "address",
                    "name": "account",
                    "type": "address"
                },
                {
                    "indexed": true,
                    "internalType": "address",
                    "name": "sender",
                    "type": "address"
                }
            ],
            "name": "RoleRevoked",
            "type": "event"
        },
        {
            "anonymous": false,
            "inputs": [
                {
                    "indexed": true,
                    "internalType": "address",
                    "name": "from",
                    "type": "address"
                },
                {
                    "indexed": true,
                    "internalType": "address",
                    "name": "to",
                    "type": "address"
                },
                {
                    "indexed": false,
                    "internalType": "uint256",
                    "name": "value",
                    "type": "uint256"
                }
            ],
            "name": "Transfer",
            "type": "event"
        },
        {
            "anonymous": false,
            "inputs": [
                {
                    "indexed": false,
                    "internalType": "address",
                    "name": "account",
                    "type": "address"
                }
            ],
            "name": "Unpaused",
            "type": "event"
        },
        {
            "inputs": [],
            "name": "DEFAULT_ADMIN_ROLE",
            "outputs": [
                {
                    "internalType": "bytes32",
                    "name": "",
                    "type": "bytes32"
                }
            ],
            "stateMutability": "view",
            "type": "function"
        },
        {
            "inputs": [],
            "name": "DOMAIN_SEPARATOR",
            "outputs": [
                {
                    "internalType": "bytes32",
                    "name": "",
                    "type": "bytes32"
                }
            ],
            "stateMutability": "view",
            "type": "function"
        },
        {
            "inputs": [],
            "name": "MINTER_ROLE",
            "outputs": [
                {
                    "internalType": "bytes32",
                    "name": "",
                    "type": "bytes32"
                }
            ],
            "stateMutability": "view",
            "type": "function"
        },
        {
            "inputs": [],
            "name": "PAUSER_ROLE",
            "outputs": [
                {
                    "internalType": "bytes32",
                    "name": "",
                    "type": "bytes32"
                }
            ],
            "stateMutability": "view",
            "type": "function"
        },
        {
            "inputs": [
                {
                    "internalType": "address",
                    "name": "owner",
                    "type": "address"
                },
                {
                    "internalType": "address",
                    "name": "spender",
                    "type": "address"
                }
            ],
            "name": "allowance",
            "outputs": [
                {
                    "internalType": "uint256",
                    "name": "",
                    "type": "uint256"
                }
            ],
            "stateMutability": "view",
            "type": "function"
        },
        {
            "inputs": [
                {
                    "internalType": "address",
                    "name": "spender",
                    "type": "address"
                },
                {
                    "internalType": "uint256",
                    "name": "amount",
                    "type": "uint256"
                }
            ],
            "name": "approve",
            "outputs": [
                {
                    "internalType": "bool",
                    "name": "",
                    "type": "bool"
                }
            ],
            "stateMutability": "nonpayable",
            "type": "function"
        },
        {
            "inputs": [
                {
                    "internalType": "address",
                    "name": "account",
                    "type": "address"
                }
            ],
            "name": "balanceOf",
            "outputs": [
                {
                    "internalType": "uint256",
                    "name": "",
                    "type": "uint256"
                }
            ],
            "stateMutability": "view",
            "type": "function"
        },
        {
            "inputs": [
                {
                    "internalType": "uint256",
                    "name": "amount",
                    "type": "uint256"
                }
            ],
            "name": "burn",
            "outputs": [],
            "stateMutability": "nonpayable",
            "type": "function"
        },
        {
            "inputs": [
                {
                    "internalType": "address",
                    "name": "account",
                    "type": "address"
                },
                {
                    "internalType": "uint256",
                    "name": "amount",
                    "type": "uint256"
                }
            ],
            "name": "burnFrom",
            "outputs": [],
            "stateMutability": "nonpayable",
            "type": "function"
        },
        {
            "inputs": [
                {
                    "internalType": "address",
                    "name": "account",
                    "type": "address"
                },
                {
                    "internalType": "uint32",
                    "name": "pos",
                    "type": "uint32"
                }
            ],
            "name": "checkpoints",
            "outputs": [
                {
                    "components": [
                        {
                            "internalType": "uint32",
                            "name": "fromBlock",
                            "type": "uint32"
                        },
                        {
                            "internalType": "uint224",
                            "name": "votes",
                            "type": "uint224"
                        }
                    ],
                    "internalType": "struct ERC20Votes.Checkpoint",
                    "name": "",
                    "type": "tuple"
                }
            ],
            "stateMutability": "view",
            "type": "function"
        },
        {
            "inputs": [],
            "name": "decimals",
            "outputs": [
                {
                    "internalType": "uint8",
                    "name": "",
                    "type": "uint8"
                }
            ],
            "stateMutability": "view",
            "type": "function"
        },
        {
            "inputs": [
                {
                    "internalType": "address",
                    "name": "spender",
                    "type": "address"
                },
                {
                    "internalType": "uint256",
                    "name": "subtractedValue",
                    "type": "uint256"
                }
            ],
            "name": "decreaseAllowance",
            "outputs": [
                {
                    "internalType": "bool",
                    "name": "",
                    "type": "bool"
                }
            ],
            "stateMutability": "nonpayable",
            "type": "function"
        },
        {
            "inputs": [
                {
                    "internalType": "address",
                    "name": "delegatee",
                    "type": "address"
                }
            ],
            "name": "delegate",
            "outputs": [],
            "stateMutability": "nonpayable",
            "type": "function"
        },
        {
            "inputs": [
                {
                    "internalType": "address",
                    "name": "delegatee",
                    "type": "address"
                },
                {
                    "internalType": "uint256",
                    "name": "nonce",
                    "type": "uint256"
                },
                {
                    "internalType": "uint256",
                    "name": "expiry",
                    "type": "uint256"
                },
                {
                    "internalType": "uint8",
                    "name": "v",
                    "type": "uint8"
                },
                {
                    "internalType": "bytes32",
                    "name": "r",
                    "type": "bytes32"
                },
                {
                    "internalType": "bytes32",
                    "name": "s",
                    "type": "bytes32"
                }
            ],
            "name": "delegateBySig",
            "outputs": [],
            "stateMutability": "nonpayable",
            "type": "function"
        },
        {
            "inputs": [
                {
                    "internalType": "address",
                    "name": "account",
                    "type": "address"
                }
            ],
            "name": "delegates",
            "outputs": [
                {
                    "internalType": "address",
                    "name": "",
                    "type": "address"
                }
            ],
            "stateMutability": "view",
            "type": "function"
        },
        {
            "inputs": [
                {
                    "internalType": "uint256",
                    "name": "blockNumber",
                    "type": "uint256"
                }
            ],
            "name": "getPastTotalSupply",
            "outputs": [
                {
                    "internalType": "uint256",
                    "name": "",
                    "type": "uint256"
                }
            ],
            "stateMutability": "view",
            "type": "function"
        },
        {
            "inputs": [
                {
                    "internalType": "address",
                    "name": "account",
                    "type": "address"
                },
                {
                    "internalType": "uint256",
                    "name": "blockNumber",
                    "type": "uint256"
                }
            ],
            "name": "getPastVotes",
            "outputs": [
                {
                    "internalType": "uint256",
                    "name": "",
                    "type": "uint256"
                }
            ],
            "stateMutability": "view",
            "type": "function"
        },
        {
            "inputs": [
                {
                    "internalType": "bytes32",
                    "name": "role",
                    "type": "bytes32"
                }
            ],
            "name": "getRoleAdmin",
            "outputs": [
                {
                    "internalType": "bytes32",
                    "name": "",
                    "type": "bytes32"
                }
            ],
            "stateMutability": "view",
            "type": "function"
        },
        {
            "inputs": [
                {
                    "internalType": "address",
                    "name": "account",
                    "type": "address"
                }
            ],
            "name": "getVotes",
            "outputs": [
                {
                    "internalType": "uint256",
                    "name": "",
                    "type": "uint256"
                }
            ],
            "stateMutability": "view",
            "type": "function"
        },
        {
            "inputs": [
                {
                    "internalType": "bytes32",
                    "name": "role",
                    "type": "bytes32"
                },
                {
                    "internalType": "address",
                    "name": "account",
                    "type": "address"
                }
            ],
            "name": "grantRole",
            "outputs": [],
            "stateMutability": "nonpayable",
            "type": "function"
        },
        {
            "inputs": [
                {
                    "internalType": "bytes32",
                    "name": "role",
                    "type": "bytes32"
                },
                {
                    "internalType": "address",
                    "name": "account",
                    "type": "address"
                }
            ],
            "name": "hasRole",
            "outputs": [
                {
                    "internalType": "bool",
                    "name": "",
                    "type": "bool"
                }
            ],
            "stateMutability": "view",
            "type": "function"
        },
        {
            "inputs": [
                {
                    "internalType": "address",
                    "name": "spender",
                    "type": "address"
                },
                {
                    "internalType": "uint256",
                    "name": "addedValue",
                    "type": "uint256"
                }
            ],
            "name": "increaseAllowance",
            "outputs": [
                {
                    "internalType": "bool",
                    "name": "",
                    "type": "bool"
                }
            ],
            "stateMutability": "nonpayable",
            "type": "function"
        },
        {
            "inputs": [
                {
                    "internalType": "address",
                    "name": "to",
                    "type": "address"
                },
                {
                    "internalType": "uint256",
                    "name": "amount",
                    "type": "uint256"
                }
            ],
            "name": "mint",
            "outputs": [],
            "stateMutability": "nonpayable",
            "type": "function"
        },
        {
            "inputs": [],
            "name": "name",
            "outputs": [
                {
                    "internalType": "string",
                    "name": "",
                    "type": "string"
                }
            ],
            "stateMutability": "view",
            "type": "function"
        },
        {
            "inputs": [
                {
                    "internalType": "address",
                    "name": "owner",
                    "type": "address"
                }
            ],
            "name": "nonces",
            "outputs": [
                {
                    "internalType": "uint256",
                    "name": "",
                    "type": "uint256"
                }
            ],
            "stateMutability": "view",
            "type": "function"
        },
        {
            "inputs": [
                {
                    "internalType": "address",
                    "name": "account",
                    "type": "address"
                }
            ],
            "name": "numCheckpoints",
            "outputs": [
                {
                    "internalType": "uint32",
                    "name": "",
                    "type": "uint32"
                }
            ],
            "stateMutability": "view",
            "type": "function"
        },
        {
            "inputs": [],
            "name": "pause",
            "outputs": [],
            "stateMutability": "nonpayable",
            "type": "function"
        },
        {
            "inputs": [],
            "name": "paused",
            "outputs": [
                {
                    "internalType": "bool",
                    "name": "",
                    "type": "bool"
                }
            ],
            "stateMutability": "view",
            "type": "function"
        },
        {
            "inputs": [
                {
                    "internalType": "address",
                    "name": "owner",
                    "type": "address"
                },
                {
                    "internalType": "address",
                    "name": "spender",
                    "type": "address"
                },
                {
                    "internalType": "uint256",
                    "name": "value",
                    "type": "uint256"
                },
                {
                    "internalType": "uint256",
                    "name": "deadline",
                    "type": "uint256"
                },
                {
                    "internalType": "uint8",
                    "name": "v",
                    "type": "uint8"
                },
                {
                    "internalType": "bytes32",
                    "name": "r",
                    "type": "bytes32"
                },
                {
                    "internalType": "bytes32",
                    "name": "s",
                    "type": "bytes32"
                }
            ],
            "name": "permit",
            "outputs": [],
            "stateMutability": "nonpayable",
            "type": "function"
        },
        {
            "inputs": [
                {
                    "internalType": "bytes32",
                    "name": "role",
                    "type": "bytes32"
                },
                {
                    "internalType": "address",
                    "name": "account",
                    "type": "address"
                }
            ],
            "name": "renounceRole",
            "outputs": [],
            "stateMutability": "nonpayable",
            "type": "function"
        },
        {
            "inputs": [
                {
                    "internalType": "bytes32",
                    "name": "role",
                    "type": "bytes32"
                },
                {
                    "internalType": "address",
                    "name": "account",
                    "type": "address"
                }
            ],
            "name": "revokeRole",
            "outputs": [],
            "stateMutability": "nonpayable",
            "type": "function"
        },
        {
            "inputs": [
                {
                    "internalType": "bytes4",
                    "name": "interfaceId",
                    "type": "bytes4"
                }
            ],
            "name": "supportsInterface",
            "outputs": [
                {
                    "internalType": "bool",
                    "name": "",
                    "type": "bool"
                }
            ],
            "stateMutability": "view",
            "type": "function"
        },
        {
            "inputs": [],
            "name": "symbol",
            "outputs": [
                {
                    "internalType": "string",
                    "name": "",
                    "type": "string"
                }
            ],
            "stateMutability": "view",
            "type": "function"
        },
        {
            "inputs": [],
            "name": "totalSupply",
            "outputs": [
                {
                    "internalType": "uint256",
                    "name": "",
                    "type": "uint256"
                }
            ],
            "stateMutability": "view",
            "type": "function"
        },
        {
            "inputs": [
                {
                    "internalType": "address",
                    "name": "to",
                    "type": "address"
                },
                {
                    "internalType": "uint256",
                    "name": "amount",
                    "type": "uint256"
                }
            ],
            "name": "transfer",
            "outputs": [
                {
                    "internalType": "bool",
                    "name": "",
                    "type": "bool"
                }
            ],
            "stateMutability": "nonpayable",
            "type": "function"
        },
        {
            "inputs": [
                {
                    "internalType": "address",
                    "name": "from",
                    "type": "address"
                },
                {
                    "internalType": "address",
                    "name": "to",
                    "type": "address"
                },
                {
                    "internalType": "uint256",
                    "name": "amount",
                    "type": "uint256"
                }
            ],
            "name": "transferFrom",
            "outputs": [
                {
                    "internalType": "bool",
                    "name": "",
                    "type": "bool"
                }
            ],
            "stateMutability": "nonpayable",
            "type": "function"
        },
        {
            "inputs": [],
            "name": "unpause",
            "outputs": [],
            "stateMutability": "nonpayable",
            "type": "function"
        }
    ],
    "bytecode": "6101606040527f6e71edae12b1b97f4d1f60370fef10105fa2faae0126114a169c64845d6126c9610140523480156200003757600080fd5b50604051806040016040528060098152602001682ba2aa242a37b5b2b760b91b81525080604051806040016040528060018152602001603160f81b815250604051806040016040528060098152602001682ba2aa242a37b5b2b760b91b815250604051806040016040528060048152602001630ae8aa8960e31b8152508160039080519060200190620000cc92919062000933565b508051620000e290600490602084019062000933565b50506005805460ff1916905550815160209283012081519183019190912060e08290526101008190524660a0818152604080517f8b73c3c69bb8fe3d512ecc4cf759cc79239f7b179b0ffacaa9a75d522b39400f818801819052818301969096526060810194909452608080850193909352308483018190528151808603909301835260c09485019091528151919095012090529190915261012052506200018c60003362000213565b620001b87f65d7a28e3265b37a6474929f336521b332c1681b933f6cb9f3376673440d862a3362000213565b620001e133620001cb6012600a62000ae2565b620001db90633b9aca0062000af3565b6200029e565b6200020d7f9f2df0fed2c77648de5860a4cc508cd0818c85b8b8a1ab4ceeef8d981c8956a63362000213565b62000b9c565b6200021f8282620002b5565b6200029a5760008281526006602090815260408083206001600160a01b03851684529091529020805460ff19166001179055620002593390565b6001600160a01b0316816001600160a01b0316837f2f8788117e7eff1d82e926ec794901d17c78024a50270940304540a733656f0d60405160405180910390a45b5050565b6200029a8282620002e260201b62000e271760201c565b60008281526006602090815260408083206001600160a01b038516845290915290205460ff165b92915050565b620002f982826200039960201b62000eb71760201c565b6001600160e01b036200030d620004968216565b11156200037a5760405162461bcd60e51b815260206004820152603060248201527f4552433230566f7465733a20746f74616c20737570706c79207269736b73206f60448201526f766572666c6f77696e6720766f74657360801b60648201526084015b60405180910390fd5b62000393600a62000faa6200049c60201b1783620004b1565b50505050565b6001600160a01b038216620003f15760405162461bcd60e51b815260206004820152601f60248201527f45524332303a206d696e7420746f20746865207a65726f206164647265737300604482015260640162000371565b620003ff6000838362000663565b806002600082825462000413919062000b15565b90915550506001600160a01b038216600090815260208190526040812080548392906200044290849062000b15565b90915550506040518181526001600160a01b038316906000907fddf252ad1be2c89b69c2b068fc378daa952ba7f163c4a11628f55a4df523b3ef9060200160405180910390a36200029a60008383620006c8565b60025490565b6000620004aa828462000b15565b9392505050565b825460009081908015620005035785620004cd60018362000b30565b81548110620004e057620004e062000b4a565b60009182526020909120015464010000000090046001600160e01b031662000506565b60005b6001600160e01b031692506200051d83858760201c565b915060008111801562000561575043866200053a60018462000b30565b815481106200054d576200054d62000b4a565b60009182526020909120015463ffffffff16145b15620005d5576200057d82620006e060201b62000fb61760201c565b866200058b60018462000b30565b815481106200059e576200059e62000b4a565b9060005260206000200160000160046101000a8154816001600160e01b0302191690836001600160e01b031602179055506200065a565b856040518060400160405280620005f7436200074f60201b620010231760201c565b63ffffffff1681526020016200061885620006e060201b62000fb61760201c565b6001600160e01b0390811690915282546001810184556000938452602093849020835194909301519091166401000000000263ffffffff909316929092179101555b50935093915050565b60055460ff1615620006ab5760405162461bcd60e51b815260206004820152601060248201526f14185d5cd8589b194e881c185d5cd95960821b604482015260640162000371565b620006c3838383620006c360201b620006cf1760201c565b505050565b620006c3838383620007b660201b620010881760201c565b60006001600160e01b038211156200074b5760405162461bcd60e51b815260206004820152602760248201527f53616665436173743a2076616c756520646f65736e27742066697420696e20326044820152663234206269747360c81b606482015260840162000371565b5090565b600063ffffffff8211156200074b5760405162461bcd60e51b815260206004820152602660248201527f53616665436173743a2076616c756520646f65736e27742066697420696e203360448201526532206269747360d01b606482015260840162000371565b620007ce838383620006c360201b620006cf1760201c565b6001600160a01b03838116600090815260086020526040808220548584168352912054620006c3929182169116838183148015906200080d5750600081115b15620006c3576001600160a01b038316156200089a576001600160a01b03831660009081526009602090815260408220829162000857919062000925901b620010ba1785620004b1565b91509150846001600160a01b0316600080516020620032fa83398151915283836040516200088f929190918252602082015260400190565b60405180910390a250505b6001600160a01b03821615620006c3576001600160a01b038216600090815260096020908152604082208291620008de91906200049c901b62000faa1785620004b1565b91509150836001600160a01b0316600080516020620032fa833981519152838360405162000916929190918252602082015260400190565b60405180910390a25050505050565b6000620004aa828462000b30565b828054620009419062000b60565b90600052602060002090601f016020900481019282620009655760008555620009b0565b82601f106200098057805160ff1916838001178555620009b0565b82800160010185558215620009b0579182015b82811115620009b057825182559160200191906001019062000993565b506200074b9291505b808211156200074b5760008155600101620009b9565b634e487b7160e01b600052601160045260246000fd5b600181815b8085111562000a2657816000190482111562000a0a5762000a0a620009cf565b8085161562000a1857918102915b93841c9390800290620009ea565b509250929050565b60008262000a3f57506001620002dc565b8162000a4e57506000620002dc565b816001811462000a67576002811462000a725762000a92565b6001915050620002dc565b60ff84111562000a865762000a86620009cf565b50506001821b620002dc565b5060208310610133831016604e8410600b841016171562000ab7575081810a620002dc565b62000ac38383620009e5565b806000190482111562000ada5762000ada620009cf565b029392505050565b6000620004aa60ff84168362000a2e565b600081600019048311821515161562000b105762000b10620009cf565b500290565b6000821982111562000b2b5762000b2b620009cf565b500190565b60008282101562000b455762000b45620009cf565b500390565b634e487b7160e01b600052603260045260246000fd5b600181811c9082168062000b7557607f821691505b60208210810362000b9657634e487b7160e01b600052602260045260246000fd5b50919050565b60805160a05160c05160e05161010051610120516101405161270362000bf76000396000610c6d015260006115c901526000611618015260006115f30152600061154c01526000611576015260006115a001526127036000f3fe608060405234801561001057600080fd5b50600436106102275760003560e01c80636fcfff4511610130578063a217fddf116100b8578063d53913931161007c578063d5391393146104cd578063d547741f146104f4578063dd62ed3e14610507578063e63ab1e914610540578063f1127ed81461056757600080fd5b8063a217fddf14610479578063a457c2d714610481578063a9059cbb14610494578063c3cda520146104a7578063d505accf146104ba57600080fd5b80638456cb59116100ff5780638456cb59146104305780638e539e8c1461043857806391d148541461044b57806395d89b411461045e5780639ab24eb01461046657600080fd5b80636fcfff45146103b957806370a08231146103e157806379cc67901461040a5780637ecebe001461041d57600080fd5b806336568abe116101b357806340c10f191161018257806340c10f191461033157806342966c6814610344578063587cde1e146103575780635c19a95c1461039b5780635c975abb146103ae57600080fd5b806336568abe146102f057806339509351146103035780633a46b1a8146103165780633f4ba83a1461032957600080fd5b806323b872dd116101fa57806323b872dd1461028e578063248a9ca3146102a15780632f2ff15d146102c4578063313ce567146102d95780633644e515146102e857600080fd5b806301ffc9a71461022c57806306fdde0314610254578063095ea7b31461026957806318160ddd1461027c575b600080fd5b61023f61023a36600461229d565b6105a4565b60405190151581526020015b60405180910390f35b61025c6105db565b60405161024b91906122f3565b61023f610277366004612342565b61066d565b6002545b60405190815260200161024b565b61023f61029c36600461236c565b610685565b6102806102af3660046123a8565b60009081526006602052604090206001015490565b6102d76102d23660046123c1565b6106a9565b005b6040516012815260200161024b565b6102806106d4565b6102d76102fe3660046123c1565b6106e3565b61023f610311366004612342565b610766565b610280610324366004612342565b6107a5565b6102d761081f565b6102d761033f366004612342565b610855565b6102d76103523660046123a8565b61088a565b6103836103653660046123ed565b6001600160a01b039081166000908152600860205260409020541690565b6040516001600160a01b03909116815260200161024b565b6102d76103a93660046123ed565b610894565b60055460ff1661023f565b6103cc6103c73660046123ed565b61089e565b60405163ffffffff909116815260200161024b565b6102806103ef3660046123ed565b6001600160a01b031660009081526020819052604090205490565b6102d7610418366004612342565b6108c0565b61028061042b3660046123ed565b6108d5565b6102d76108f3565b6102806104463660046123a8565b610926565b61023f6104593660046123c1565b610982565b61025c6109ad565b6102806104743660046123ed565b6109bc565b610280600081565b61023f61048f366004612342565b610a43565b61023f6104a2366004612342565b610ad5565b6102d76104b5366004612419565b610ae3565b6102d76104c8366004612471565b610c19565b6102807f9f2df0fed2c77648de5860a4cc508cd0818c85b8b8a1ab4ceeef8d981c8956a681565b6102d76105023660046123c1565b610d7d565b6102806105153660046124db565b6001600160a01b03918216600090815260016020908152604080832093909416825291909152205490565b6102807f65d7a28e3265b37a6474929f336521b332c1681b933f6cb9f3376673440d862a81565b61057a610575366004612505565b610da3565b60408051825163ffffffff1681526020928301516001600160e01b0316928101929092520161024b565b60006001600160e01b03198216637965db0b60e01b14806105d557506301ffc9a760e01b6001600160e01b03198316145b92915050565b6060600380546105ea90612545565b80601f016020809104026020016040519081016040528092919081815260200182805461061690612545565b80156106635780601f1061063857610100808354040283529160200191610663565b820191906000526020600020905b81548152906001019060200180831161064657829003601f168201915b5050505050905090565b60003361067b8185856110c6565b5060019392505050565b6000336106938582856111ea565b61069e858585611276565b506001949350505050565b6000828152600660205260409020600101546106c58133611455565b6106cf83836114b9565b505050565b60006106de61153f565b905090565b6001600160a01b03811633146107585760405162461bcd60e51b815260206004820152602f60248201527f416363657373436f6e74726f6c3a2063616e206f6e6c792072656e6f756e636560448201526e103937b632b9903337b91039b2b63360891b60648201526084015b60405180910390fd5b6107628282611666565b5050565b3360008181526001602090815260408083206001600160a01b038716845290915281205490919061067b90829086906107a090879061258f565b6110c6565b60004382106107f65760405162461bcd60e51b815260206004820152601f60248201527f4552433230566f7465733a20626c6f636b206e6f7420796574206d696e656400604482015260640161074f565b6001600160a01b038316600090815260096020526040902061081890836116cd565b9392505050565b7f65d7a28e3265b37a6474929f336521b332c1681b933f6cb9f3376673440d862a61084a8133611455565b61085261178a565b50565b7f9f2df0fed2c77648de5860a4cc508cd0818c85b8b8a1ab4ceeef8d981c8956a66108808133611455565b6106cf838361181d565b6108523382611827565b6108523382611831565b6001600160a01b0381166000908152600960205260408120546105d590611023565b6108cb8233836111ea565b6107628282611827565b6001600160a01b0381166000908152600760205260408120546105d5565b7f65d7a28e3265b37a6474929f336521b332c1681b933f6cb9f3376673440d862a61091e8133611455565b6108526118aa565b60004382106109775760405162461bcd60e51b815260206004820152601f60248201527f4552433230566f7465733a20626c6f636b206e6f7420796574206d696e656400604482015260640161074f565b6105d5600a836116cd565b60009182526006602090815260408084206001600160a01b0393909316845291905290205460ff1690565b6060600480546105ea90612545565b6001600160a01b0381166000908152600960205260408120548015610a30576001600160a01b03831660009081526009602052604090206109fe6001836125a7565b81548110610a0e57610a0e6125be565b60009182526020909120015464010000000090046001600160e01b0316610a33565b60005b6001600160e01b03169392505050565b3360008181526001602090815260408083206001600160a01b038716845290915281205490919083811015610ac85760405162461bcd60e51b815260206004820152602560248201527f45524332303a2064656372656173656420616c6c6f77616e63652062656c6f77604482015264207a65726f60d81b606482015260840161074f565b61069e82868684036110c6565b60003361067b818585611276565b83421115610b335760405162461bcd60e51b815260206004820152601d60248201527f4552433230566f7465733a207369676e61747572652065787069726564000000604482015260640161074f565b604080517fe48329057bfd03d55e49b547132e39cffd9c1820ad7b9d4c5307691425d15adf60208201526001600160a01b038816918101919091526060810186905260808101859052600090610bad90610ba59060a00160405160208183030381529060405280519060200120611925565b858585611973565b9050610bb88161199b565b8614610c065760405162461bcd60e51b815260206004820152601960248201527f4552433230566f7465733a20696e76616c6964206e6f6e636500000000000000604482015260640161074f565b610c108188611831565b50505050505050565b83421115610c695760405162461bcd60e51b815260206004820152601d60248201527f45524332305065726d69743a206578706972656420646561646c696e65000000604482015260640161074f565b60007f0000000000000000000000000000000000000000000000000000000000000000888888610c988c61199b565b6040805160208101969096526001600160a01b0394851690860152929091166060840152608083015260a082015260c0810186905260e0016040516020818303038152906040528051906020012090506000610cf382611925565b90506000610d0382878787611973565b9050896001600160a01b0316816001600160a01b031614610d665760405162461bcd60e51b815260206004820152601e60248201527f45524332305065726d69743a20696e76616c6964207369676e61747572650000604482015260640161074f565b610d718a8a8a6110c6565b50505050505050505050565b600082815260066020526040902060010154610d998133611455565b6106cf8383611666565b60408051808201909152600080825260208201526001600160a01b0383166000908152600960205260409020805463ffffffff8416908110610de757610de76125be565b60009182526020918290206040805180820190915291015463ffffffff8116825264010000000090046001600160e01b0316918101919091529392505050565b610e318282610eb7565b6002546001600160e01b031015610ea35760405162461bcd60e51b815260206004820152603060248201527f4552433230566f7465733a20746f74616c20737570706c79207269736b73206f60448201526f766572666c6f77696e6720766f74657360801b606482015260840161074f565b610eb1600a610faa836119c3565b50505050565b6001600160a01b038216610f0d5760405162461bcd60e51b815260206004820152601f60248201527f45524332303a206d696e7420746f20746865207a65726f206164647265737300604482015260640161074f565b610f1960008383611b3c565b8060026000828254610f2b919061258f565b90915550506001600160a01b03821660009081526020819052604081208054839290610f5890849061258f565b90915550506040518181526001600160a01b038316906000907fddf252ad1be2c89b69c2b068fc378daa952ba7f163c4a11628f55a4df523b3ef9060200160405180910390a361076260008383611b82565b6000610818828461258f565b60006001600160e01b0382111561101f5760405162461bcd60e51b815260206004820152602760248201527f53616665436173743a2076616c756520646f65736e27742066697420696e20326044820152663234206269747360c81b606482015260840161074f565b5090565b600063ffffffff82111561101f5760405162461bcd60e51b815260206004820152602660248201527f53616665436173743a2076616c756520646f65736e27742066697420696e203360448201526532206269747360d01b606482015260840161074f565b6001600160a01b038381166000908152600860205260408082205485841683529120546106cf92918216911683611b8d565b600061081882846125a7565b6001600160a01b0383166111285760405162461bcd60e51b8152602060048201526024808201527f45524332303a20617070726f76652066726f6d20746865207a65726f206164646044820152637265737360e01b606482015260840161074f565b6001600160a01b0382166111895760405162461bcd60e51b815260206004820152602260248201527f45524332303a20617070726f766520746f20746865207a65726f206164647265604482015261737360f01b606482015260840161074f565b6001600160a01b0383811660008181526001602090815260408083209487168084529482529182902085905590518481527f8c5be1e5ebec7d5bd14f71427d1e84f3dd0314c0f7b2291e5b200ac8c7c3b925910160405180910390a3505050565b6001600160a01b038381166000908152600160209081526040808320938616835292905220546000198114610eb157818110156112695760405162461bcd60e51b815260206004820152601d60248201527f45524332303a20696e73756666696369656e7420616c6c6f77616e6365000000604482015260640161074f565b610eb184848484036110c6565b6001600160a01b0383166112da5760405162461bcd60e51b815260206004820152602560248201527f45524332303a207472616e736665722066726f6d20746865207a65726f206164604482015264647265737360d81b606482015260840161074f565b6001600160a01b03821661133c5760405162461bcd60e51b815260206004820152602360248201527f45524332303a207472616e7366657220746f20746865207a65726f206164647260448201526265737360e81b606482015260840161074f565b611347838383611b3c565b6001600160a01b038316600090815260208190526040902054818110156113bf5760405162461bcd60e51b815260206004820152602660248201527f45524332303a207472616e7366657220616d6f756e7420657863656564732062604482015265616c616e636560d01b606482015260840161074f565b6001600160a01b038085166000908152602081905260408082208585039055918516815290812080548492906113f690849061258f565b92505081905550826001600160a01b0316846001600160a01b03167fddf252ad1be2c89b69c2b068fc378daa952ba7f163c4a11628f55a4df523b3ef8460405161144291815260200190565b60405180910390a3610eb1848484611b82565b61145f8282610982565b61076257611477816001600160a01b03166014611cca565b611482836020611cca565b6040516020016114939291906125d4565b60408051601f198184030181529082905262461bcd60e51b825261074f916004016122f3565b6114c38282610982565b6107625760008281526006602090815260408083206001600160a01b03851684529091529020805460ff191660011790556114fb3390565b6001600160a01b0316816001600160a01b0316837f2f8788117e7eff1d82e926ec794901d17c78024a50270940304540a733656f0d60405160405180910390a45050565b6000306001600160a01b037f00000000000000000000000000000000000000000000000000000000000000001614801561159857507f000000000000000000000000000000000000000000000000000000000000000046145b156115c257507f000000000000000000000000000000000000000000000000000000000000000090565b50604080517f00000000000000000000000000000000000000000000000000000000000000006020808301919091527f0000000000000000000000000000000000000000000000000000000000000000828401527f000000000000000000000000000000000000000000000000000000000000000060608301524660808301523060a0808401919091528351808403909101815260c0909201909252805191012090565b6116708282610982565b156107625760008281526006602090815260408083206001600160a01b0385168085529252808320805460ff1916905551339285917ff6391f5c32d9c69d2a47ea670b442974b53935d1edc7fd64eb21e047a839171b9190a45050565b8154600090815b818110156117315760006116e88284611e66565b9050848682815481106116fd576116fd6125be565b60009182526020909120015463ffffffff16111561171d5780925061172b565b61172881600161258f565b91505b506116d4565b811561177557846117436001846125a7565b81548110611753576117536125be565b60009182526020909120015464010000000090046001600160e01b0316611778565b60005b6001600160e01b031695945050505050565b60055460ff166117d35760405162461bcd60e51b815260206004820152601460248201527314185d5cd8589b194e881b9bdd081c185d5cd95960621b604482015260640161074f565b6005805460ff191690557f5db9ee0a495bf2e6ff9c91a7834c1ba4fdd244a5e8aa4e537bd38aeae4b073aa335b6040516001600160a01b03909116815260200160405180910390a1565b6107628282610e27565b6107628282611e81565b6001600160a01b038281166000818152600860208181526040808420805485845282862054949093528787166001600160a01b03198416811790915590519190951694919391928592917f3134e8a2e6d97e929a7e54011ea5485d7d196dd5f0ba4d4ef95803e8e3fc257f9190a4610eb1828483611b8d565b60055460ff16156118f05760405162461bcd60e51b815260206004820152601060248201526f14185d5cd8589b194e881c185d5cd95960821b604482015260640161074f565b6005805460ff191660011790557f62e78cea01bee320cd4e420270b5ea74000d11b0c9f74754ebdbfc544b05a2586118003390565b60006105d561193261153f565b8360405161190160f01b6020820152602281018390526042810182905260009060620160405160208183030381529060405280519060200120905092915050565b600080600061198487878787611e99565b9150915061199181611f86565b5095945050505050565b6001600160a01b03811660009081526007602052604090208054600181018255905b50919050565b825460009081908015611a0e57856119dc6001836125a7565b815481106119ec576119ec6125be565b60009182526020909120015464010000000090046001600160e01b0316611a11565b60005b6001600160e01b03169250611a2a83858763ffffffff16565b9150600081118015611a6857504386611a446001846125a7565b81548110611a5457611a546125be565b60009182526020909120015463ffffffff16145b15611ac857611a7682610fb6565b86611a826001846125a7565b81548110611a9257611a926125be565b9060005260206000200160000160046101000a8154816001600160e01b0302191690836001600160e01b03160217905550611b33565b856040518060400160405280611add43611023565b63ffffffff168152602001611af185610fb6565b6001600160e01b0390811690915282546001810184556000938452602093849020835194909301519091166401000000000263ffffffff909316929092179101555b50935093915050565b60055460ff16156106cf5760405162461bcd60e51b815260206004820152601060248201526f14185d5cd8589b194e881c185d5cd95960821b604482015260640161074f565b6106cf838383611088565b816001600160a01b0316836001600160a01b031614158015611baf5750600081115b156106cf576001600160a01b03831615611c3d576001600160a01b03831660009081526009602052604081208190611bea906110ba856119c3565b91509150846001600160a01b03167fdec2bacdd2f05b59de34da9b523dff8be42e5e38e818c82fdb0bae774387a7248383604051611c32929190918252602082015260400190565b60405180910390a250505b6001600160a01b038216156106cf576001600160a01b03821660009081526009602052604081208190611c7390610faa856119c3565b91509150836001600160a01b03167fdec2bacdd2f05b59de34da9b523dff8be42e5e38e818c82fdb0bae774387a7248383604051611cbb929190918252602082015260400190565b60405180910390a25050505050565b60606000611cd9836002612649565b611ce490600261258f565b67ffffffffffffffff811115611cfc57611cfc612668565b6040519080825280601f01601f191660200182016040528015611d26576020820181803683370190505b509050600360fc1b81600081518110611d4157611d416125be565b60200101906001600160f81b031916908160001a905350600f60fb1b81600181518110611d7057611d706125be565b60200101906001600160f81b031916908160001a9053506000611d94846002612649565b611d9f90600161258f565b90505b6001811115611e17576f181899199a1a9b1b9c1cb0b131b232b360811b85600f1660108110611dd357611dd36125be565b1a60f81b828281518110611de957611de96125be565b60200101906001600160f81b031916908160001a90535060049490941c93611e108161267e565b9050611da2565b5083156108185760405162461bcd60e51b815260206004820181905260248201527f537472696e67733a20686578206c656e67746820696e73756666696369656e74604482015260640161074f565b6000611e756002848418612695565b6108189084841661258f565b611e8b828261213c565b610eb1600a6110ba836119c3565b6000807f7fffffffffffffffffffffffffffffff5d576e7357a4501ddfe92f46681b20a0831115611ed05750600090506003611f7d565b8460ff16601b14158015611ee857508460ff16601c14155b15611ef95750600090506004611f7d565b6040805160008082526020820180845289905260ff881692820192909252606081018690526080810185905260019060a0016020604051602081039080840390855afa158015611f4d573d6000803e3d6000fd5b5050604051601f1901519150506001600160a01b038116611f7657600060019250925050611f7d565b9150600090505b94509492505050565b6000816004811115611f9a57611f9a6126b7565b03611fa25750565b6001816004811115611fb657611fb66126b7565b036120035760405162461bcd60e51b815260206004820152601860248201527f45434453413a20696e76616c6964207369676e61747572650000000000000000604482015260640161074f565b6002816004811115612017576120176126b7565b036120645760405162461bcd60e51b815260206004820152601f60248201527f45434453413a20696e76616c6964207369676e6174757265206c656e67746800604482015260640161074f565b6003816004811115612078576120786126b7565b036120d05760405162461bcd60e51b815260206004820152602260248201527f45434453413a20696e76616c6964207369676e6174757265202773272076616c604482015261756560f01b606482015260840161074f565b60048160048111156120e4576120e46126b7565b036108525760405162461bcd60e51b815260206004820152602260248201527f45434453413a20696e76616c6964207369676e6174757265202776272076616c604482015261756560f01b606482015260840161074f565b6001600160a01b03821661219c5760405162461bcd60e51b815260206004820152602160248201527f45524332303a206275726e2066726f6d20746865207a65726f206164647265736044820152607360f81b606482015260840161074f565b6121a882600083611b3c565b6001600160a01b0382166000908152602081905260409020548181101561221c5760405162461bcd60e51b815260206004820152602260248201527f45524332303a206275726e20616d6f756e7420657863656564732062616c616e604482015261636560f01b606482015260840161074f565b6001600160a01b038316600090815260208190526040812083830390556002805484929061224b9084906125a7565b90915550506040518281526000906001600160a01b038516907fddf252ad1be2c89b69c2b068fc378daa952ba7f163c4a11628f55a4df523b3ef9060200160405180910390a36106cf83600084611b82565b6000602082840312156122af57600080fd5b81356001600160e01b03198116811461081857600080fd5b60005b838110156122e25781810151838201526020016122ca565b83811115610eb15750506000910152565b60208152600082518060208401526123128160408501602087016122c7565b601f01601f19169190910160400192915050565b80356001600160a01b038116811461233d57600080fd5b919050565b6000806040838503121561235557600080fd5b61235e83612326565b946020939093013593505050565b60008060006060848603121561238157600080fd5b61238a84612326565b925061239860208501612326565b9150604084013590509250925092565b6000602082840312156123ba57600080fd5b5035919050565b600080604083850312156123d457600080fd5b823591506123e460208401612326565b90509250929050565b6000602082840312156123ff57600080fd5b61081882612326565b803560ff8116811461233d57600080fd5b60008060008060008060c0878903121561243257600080fd5b61243b87612326565b9550602087013594506040870135935061245760608801612408565b92506080870135915060a087013590509295509295509295565b600080600080600080600060e0888a03121561248c57600080fd5b61249588612326565b96506124a360208901612326565b955060408801359450606088013593506124bf60808901612408565b925060a0880135915060c0880135905092959891949750929550565b600080604083850312156124ee57600080fd5b6124f783612326565b91506123e460208401612326565b6000806040838503121561251857600080fd5b61252183612326565b9150602083013563ffffffff8116811461253a57600080fd5b809150509250929050565b600181811c9082168061255957607f821691505b6020821081036119bd57634e487b7160e01b600052602260045260246000fd5b634e487b7160e01b600052601160045260246000fd5b600082198211156125a2576125a2612579565b500190565b6000828210156125b9576125b9612579565b500390565b634e487b7160e01b600052603260045260246000fd5b7f416363657373436f6e74726f6c3a206163636f756e742000000000000000000081526000835161260c8160178501602088016122c7565b7001034b99036b4b9b9b4b733903937b6329607d1b601791840191820152835161263d8160288401602088016122c7565b01602801949350505050565b600081600019048311821515161561266357612663612579565b500290565b634e487b7160e01b600052604160045260246000fd5b60008161268d5761268d612579565b506000190190565b6000826126b257634e487b7160e01b600052601260045260246000fd5b500490565b634e487b7160e01b600052602160045260246000fdfea264697066735822122091d7fabbc0c3450deb1954de01e3101c47e92ec6bda80a405f0d7a6b0f5e247e64736f6c634300080d0033dec2bacdd2f05b59de34da9b523dff8be42e5e38e818c82fdb0bae774387a724",
    "sourcePath": "f:/blockchain/uniswap-analysis/contracts/WETHToken.sol",
    "compiler": {
        "name": "solc",
        "version": "0.8.13+commit.abaa5c0e"
    },
    "functionHashes": {
        "DEFAULT_ADMIN_ROLE()": "a217fddf",
        "DOMAIN_SEPARATOR()": "3644e515",
        "MINTER_ROLE()": "d5391393",
        "PAUSER_ROLE()": "e63ab1e9",
        "allowance(address,address)": "dd62ed3e",
        "approve(address,uint256)": "095ea7b3",
        "balanceOf(address)": "70a08231",
        "burn(uint256)": "42966c68",
        "burnFrom(address,uint256)": "79cc6790",
        "checkpoints(address,uint32)": "f1127ed8",
        "decimals()": "313ce567",
        "decreaseAllowance(address,uint256)": "a457c2d7",
        "delegate(address)": "5c19a95c",
        "delegateBySig(address,uint256,uint256,uint8,bytes32,bytes32)": "c3cda520",
        "delegates(address)": "587cde1e",
        "getPastTotalSupply(uint256)": "8e539e8c",
        "getPastVotes(address,uint256)": "3a46b1a8",
        "getRoleAdmin(bytes32)": "248a9ca3",
        "getVotes(address)": "9ab24eb0",
        "grantRole(bytes32,address)": "2f2ff15d",
        "hasRole(bytes32,address)": "91d14854",
        "increaseAllowance(address,uint256)": "39509351",
        "mint(address,uint256)": "40c10f19",
        "name()": "06fdde03",
        "nonces(address)": "7ecebe00",
        "numCheckpoints(address)": "6fcfff45",
        "pause()": "8456cb59",
        "paused()": "5c975abb",
        "permit(address,address,uint256,uint256,uint8,bytes32,bytes32)": "d505accf",
        "renounceRole(bytes32,address)": "36568abe",
        "revokeRole(bytes32,address)": "d547741f",
        "supportsInterface(bytes4)": "01ffc9a7",
        "symbol()": "95d89b41",
        "totalSupply()": "18160ddd",
        "transfer(address,uint256)": "a9059cbb",
        "transferFrom(address,address,uint256)": "23b872dd",
        "unpause()": "3f4ba83a"
    },
    "gasEstimates": {
        "creation": {
            "codeDepositCost": "1997400",
            "executionCost": "infinite",
            "totalCost": "infinite"
        },
        "external": {
            "DEFAULT_ADMIN_ROLE()": "240",
            "DOMAIN_SEPARATOR()": "infinite",
            "MINTER_ROLE()": "239",
            "PAUSER_ROLE()": "305",
            "allowance(address,address)": "infinite",
            "approve(address,uint256)": "24681",
            "balanceOf(address)": "2608",
            "burn(uint256)": "infinite",
            "burnFrom(address,uint256)": "infinite",
            "checkpoints(address,uint32)": "5175",
            "decimals()": "289",
            "decreaseAllowance(address,uint256)": "26956",
            "delegate(address)": "infinite",
            "delegateBySig(address,uint256,uint256,uint8,bytes32,bytes32)": "infinite",
            "delegates(address)": "2656",
            "getPastTotalSupply(uint256)": "infinite",
            "getPastVotes(address,uint256)": "7213",
            "getRoleAdmin(bytes32)": "2512",
            "getVotes(address)": "7212",
            "grantRole(bytes32,address)": "infinite",
            "hasRole(bytes32,address)": "2743",
            "increaseAllowance(address,uint256)": "27002",
            "mint(address,uint256)": "infinite",
            "name()": "infinite",
            "nonces(address)": "2683",
            "numCheckpoints(address)": "2716",
            "pause()": "infinite",
            "paused()": "2426",
            "permit(address,address,uint256,uint256,uint8,bytes32,bytes32)": "infinite",
            "renounceRole(bytes32,address)": "29047",
            "revokeRole(bytes32,address)": "infinite",
            "supportsInterface(bytes4)": "473",
            "symbol()": "infinite",
            "totalSupply()": "2394",
            "transfer(address,uint256)": "infinite",
            "transferFrom(address,address,uint256)": "infinite",
            "unpause()": "infinite"
        },
        "internal": {
            "_afterTokenTransfer(address,address,uint256)": "infinite",
            "_beforeTokenTransfer(address,address,uint256)": "infinite",
            "_burn(address,uint256)": "infinite",
            "_mint(address,uint256)": "infinite"
        }
    }
}