{
  "address": "0x9A676e781A523b5d0C0e43731313A708CB607508",
  "abi": [
    {
      "inputs": [
        {
          "internalType": "address",
          "name": "factory",
          "type": "address"
        },
        {
          "internalType": "address",
          "name": "tokenA",
          "type": "address"
        },
        {
          "internalType": "address",
          "name": "tokenB",
          "type": "address"
        }
      ],
      "stateMutability": "nonpayable",
      "type": "constructor"
    },
    {
      "inputs": [],
      "name": "PERIOD",
      "outputs": [
        {
          "internalType": "uint256",
          "name": "",
          "type": "uint256"
        }
      ],
      "stateMutability": "view",
      "type": "function"
    },
    {
      "inputs": [],
      "name": "blockTimestampLast",
      "outputs": [
        {
          "internalType": "uint32",
          "name": "",
          "type": "uint32"
        }
      ],
      "stateMutability": "view",
      "type": "function"
    },
    {
      "inputs": [
        {
          "internalType": "address",
          "name": "token",
          "type": "address"
        },
        {
          "internalType": "uint256",
          "name": "amountIn",
          "type": "uint256"
        }
      ],
      "name": "consult",
      "outputs": [
        {
          "internalType": "uint256",
          "name": "amountOut",
          "type": "uint256"
        }
      ],
      "stateMutability": "view",
      "type": "function"
    },
    {
      "inputs": [],
      "name": "price0Average",
      "outputs": [
        {
          "internalType": "uint224",
          "name": "_x",
          "type": "uint224"
        }
      ],
      "stateMutability": "view",
      "type": "function"
    },
    {
      "inputs": [],
      "name": "price0CumulativeLast",
      "outputs": [
        {
          "internalType": "uint256",
          "name": "",
          "type": "uint256"
        }
      ],
      "stateMutability": "view",
      "type": "function"
    },
    {
      "inputs": [],
      "name": "price1Average",
      "outputs": [
        {
          "internalType": "uint224",
          "name": "_x",
          "type": "uint224"
        }
      ],
      "stateMutability": "view",
      "type": "function"
    },
    {
      "inputs": [],
      "name": "price1CumulativeLast",
      "outputs": [
        {
          "internalType": "uint256",
          "name": "",
          "type": "uint256"
        }
      ],
      "stateMutability": "view",
      "type": "function"
    },
    {
      "inputs": [],
      "name": "token0",
      "outputs": [
        {
          "internalType": "address",
          "name": "",
          "type": "address"
        }
      ],
      "stateMutability": "view",
      "type": "function"
    },
    {
      "inputs": [],
      "name": "token1",
      "outputs": [
        {
          "internalType": "address",
          "name": "",
          "type": "address"
        }
      ],
      "stateMutability": "view",
      "type": "function"
    },
    {
      "inputs": [],
      "name": "update",
      "outputs": [],
      "stateMutability": "nonpayable",
      "type": "function"
    }
  ],
  "transactionHash": "0xa1c8ffdbcd209ee08403e87b90c4029c34233abf94b5c44f866c582225c5c9b7",
  "args": [
    "0xCf7Ed3AccA5a467e9e704C703E8D87F634fB0Fc9",
    "0xe7f1725E7734CE288F8367e1Bb143E90bb3F0512",
    "0x9fE46736679d2D9a65F0992F2272dE9f3c7fa6e0"
  ],
  "numDeployments": 1,
  "solcInputHash": "b3956e104f0dfb9ff6e940daf944fa83",
  "bytecode": "0x60e06040523480156200001157600080fd5b50604051620015c5380380620015c5833981810160405260608110156200003757600080fd5b50805160208083015160409093015191929190600090620000679085908590859062000d1b6200037d821b17901c565b9050806001600160a01b03166080816001600160a01b031660601b81525050806001600160a01b0316630dfe16816040518163ffffffff1660e01b815260040160206040518083038186803b158015620000c057600080fd5b505afa158015620000d5573d6000803e3d6000fd5b505050506040513d6020811015620000ec57600080fd5b505160601b6001600160601b03191660a0526040805163d21220a760e01b815290516001600160a01b0383169163d21220a7916004808301926020929190829003018186803b1580156200013f57600080fd5b505afa15801562000154573d6000803e3d6000fd5b505050506040513d60208110156200016b57600080fd5b505160601b6001600160601b03191660c05260408051635909c0d560e01b815290516001600160a01b03831691635909c0d5916004808301926020929190829003018186803b158015620001be57600080fd5b505afa158015620001d3573d6000803e3d6000fd5b505050506040513d6020811015620001ea57600080fd5b505160005560408051635a3d549360e01b815290516001600160a01b03831691635a3d5493916004808301926020929190829003018186803b1580156200023057600080fd5b505afa15801562000245573d6000803e3d6000fd5b505050506040513d60208110156200025c57600080fd5b505160015560408051630240bc6b60e21b8152905160009182916001600160a01b03851691630902f1ac916004808301926060929190829003018186803b158015620002a757600080fd5b505afa158015620002bc573d6000803e3d6000fd5b505050506040513d6060811015620002d357600080fd5b50805160208201516040909201516002805463ffffffff191663ffffffff909216919091179055925090506001600160701b038216158015906200031f57506001600160701b03811615155b62000371576040805162461bcd60e51b815260206004820181905260248201527f4578616d706c654f7261636c6553696d706c653a204e4f5f5245534552564553604482015290519081900360640190fd5b5050505050506200053d565b600080806200039685856001600160e01b036200045a16565b604080516001600160601b0319606094851b811660208084019190915293851b81166034830152825160288184030181526048830184528051908501207fff0000000000000000000000000000000000000000000000000000000000000060688401529a90941b9093166069840152607d8301989098527f95c528b03328f4f58aa1a5f4b3e063c1f9cef5effb407486f970e41fe98d406f609d808401919091528851808403909101815260bd909201909752805196019590952095945050505050565b600080826001600160a01b0316846001600160a01b03161415620004b05760405162461bcd60e51b8152600401808060200182810382526025815260200180620015a06025913960400191505060405180910390fd5b826001600160a01b0316846001600160a01b031610620004d2578284620004d5565b83835b90925090506001600160a01b03821662000536576040805162461bcd60e51b815260206004820152601e60248201527f556e697377617056324c6962726172793a205a45524f5f414444524553530000604482015290519081900360640190fd5b9250929050565b60805160601c60a05160601c60c05160601c6110236200057d600039806102a952806105da5250806101cd52806101f35250806103e452506110236000f3fe608060405234801561001057600080fd5b50600436106100be5760003560e01c8063a2e6204511610076578063b4d1d7951161005b578063b4d1d7951461019a578063c5700a02146101a2578063d21220a7146101c3576100be565b8063a2e6204514610188578063a6bb453914610192576100be565b80635909c0d5116100a75780635909c0d51461013f5780635a3d5493146101475780635e6aaf2c1461014f576100be565b80630dfe1681146100c35780633ddac953146100f4575b600080fd5b6100cb6101cb565b6040805173ffffffffffffffffffffffffffffffffffffffff9092168252519081900360200190f35b61012d6004803603604081101561010a57600080fd5b5073ffffffffffffffffffffffffffffffffffffffff81351690602001356101ef565b60408051918252519081900360200190f35b61012d6103aa565b61012d6103b0565b6101576103b6565b604080517bffffffffffffffffffffffffffffffffffffffffffffffffffffffff9092168252519081900360200190f35b6101906103da565b005b6101576105a1565b61012d6105c5565b6101aa6105cc565b6040805163ffffffff9092168252519081900360200190f35b6100cb6105d8565b7f000000000000000000000000000000000000000000000000000000000000000081565b60007f000000000000000000000000000000000000000000000000000000000000000073ffffffffffffffffffffffffffffffffffffffff168373ffffffffffffffffffffffffffffffffffffffff1614156102a75760408051602081019091526003547bffffffffffffffffffffffffffffffffffffffffffffffffffffffff16815261028c90610287908463ffffffff6105fc16565b6106bf565b71ffffffffffffffffffffffffffffffffffff1690506103a4565b7f000000000000000000000000000000000000000000000000000000000000000073ffffffffffffffffffffffffffffffffffffffff168373ffffffffffffffffffffffffffffffffffffffff161461034b576040517f08c379a0000000000000000000000000000000000000000000000000000000008152600401808060200182810382526022815260200180610fa56022913960400191505060405180910390fd5b60408051602081019091526004547bffffffffffffffffffffffffffffffffffffffffffffffffffffffff16815261038d90610287908463ffffffff6105fc16565b71ffffffffffffffffffffffffffffffffffff1690505b92915050565b60005481565b60015481565b6004547bffffffffffffffffffffffffffffffffffffffffffffffffffffffff1681565b60008060006104087f00000000000000000000000000000000000000000000000000000000000000006106c6565b600254929550909350915063ffffffff90811682039062015180908216101561047c576040517f08c379a0000000000000000000000000000000000000000000000000000000008152600401808060200182810382526027815260200180610fc76027913960400191505060405180910390fd5b60405180602001604052808263ffffffff1660005487038161049a57fe5b047bffffffffffffffffffffffffffffffffffffffffffffffffffffffff9081169091529051600380547fffffffff0000000000000000000000000000000000000000000000000000000016919092161790556040805160208101909152600154819063ffffffff84169086038161050e57fe5b047bffffffffffffffffffffffffffffffffffffffffffffffffffffffff9081169091529051600480547fffffffff00000000000000000000000000000000000000000000000000000000169190921617905550600092909255600155600280547fffffffffffffffffffffffffffffffffffffffffffffffffffffffff000000001663ffffffff909216919091179055565b6003547bffffffffffffffffffffffffffffffffffffffffffffffffffffffff1681565b6201518081565b60025463ffffffff1681565b7f000000000000000000000000000000000000000000000000000000000000000081565b610604610cf6565b600082158061063f57505082517bffffffffffffffffffffffffffffffffffffffffffffffffffffffff168281029083828161063c57fe5b04145b6106aa57604080517f08c379a000000000000000000000000000000000000000000000000000000000815260206004820152601960248201527f4669786564506f696e743a3a6d756c3a206f766572666c6f7700000000000000604482015290519081900360640190fd5b60408051602081019091529081529392505050565b5160701c90565b60008060006106d361094d565b90508373ffffffffffffffffffffffffffffffffffffffff16635909c0d56040518163ffffffff1660e01b815260040160206040518083038186803b15801561071b57600080fd5b505afa15801561072f573d6000803e3d6000fd5b505050506040513d602081101561074557600080fd5b5051604080517f5a3d5493000000000000000000000000000000000000000000000000000000008152905191945073ffffffffffffffffffffffffffffffffffffffff861691635a3d549391600480820192602092909190829003018186803b1580156107b157600080fd5b505afa1580156107c5573d6000803e3d6000fd5b505050506040513d60208110156107db57600080fd5b5051604080517f0902f1ac00000000000000000000000000000000000000000000000000000000815290519193506000918291829173ffffffffffffffffffffffffffffffffffffffff891691630902f1ac916004808301926060929190829003018186803b15801561084d57600080fd5b505afa158015610861573d6000803e3d6000fd5b505050506040513d606081101561087757600080fd5b5080516020820151604090920151909450909250905063ffffffff808216908516146109435780840363ffffffff81166108c46dffffffffffffffffffffffffffff808616908716610957565b600001517bffffffffffffffffffffffffffffffffffffffffffffffffffffffff1602870196508063ffffffff1661091c856dffffffffffffffffffffffffffff16856dffffffffffffffffffffffffffff16610957565b517bffffffffffffffffffffffffffffffffffffffffffffffffffffffff16029590950194505b5050509193909250565b63ffffffff421690565b61095f610d09565b600082116109b8576040517f08c379a0000000000000000000000000000000000000000000000000000000008152600401808060200182810382526026815260200180610f7f6026913960400191505060405180910390fd5b826109d257506040805160208101909152600081526103a4565b71ffffffffffffffffffffffffffffffffffff8311610abd57600082607085901b816109fa57fe5b0490507bffffffffffffffffffffffffffffffffffffffffffffffffffffffff811115610a8857604080517f08c379a000000000000000000000000000000000000000000000000000000000815260206004820152601e60248201527f4669786564506f696e743a3a6672616374696f6e3a206f766572666c6f770000604482015290519081900360640190fd5b6040518060200160405280827bffffffffffffffffffffffffffffffffffffffffffffffffffffffff168152509150506103a4565b6000610ad9846e01000000000000000000000000000085610b66565b90507bffffffffffffffffffffffffffffffffffffffffffffffffffffffff811115610a8857604080517f08c379a000000000000000000000000000000000000000000000000000000000815260206004820152601e60248201527f4669786564506f696e743a3a6672616374696f6e3a206f766572666c6f770000604482015290519081900360640190fd5b6000806000610b758686610c3b565b9150915060008480610b8357fe5b868809905082811115610b97576001820391505b918290039181610bb557848381610baa57fe5b049350505050610c34565b848210610c2357604080517f08c379a000000000000000000000000000000000000000000000000000000000815260206004820152601a60248201527f46756c6c4d6174683a2046554c4c4449565f4f564552464c4f57000000000000604482015290519081900360640190fd5b610c2e838387610c86565b93505050505b9392505050565b600080807fffffffffffffffffffffffffffffffffffffffffffffffffffffffffffffffff84860990508385029250828103915082811015610c7e576001820391505b509250929050565b60008181038216808381610c9657fe5b049250808581610ca257fe5b049450808160000381610cb157fe5b60028581038087028203028087028203028087028203028087028203028087028203028087028203029586029003909402930460010193909302939093010292915050565b6040518060200160405280600081525090565b60408051602081019091526000815290565b6000806000610d2a8585610e06565b604080517fffffffffffffffffffffffffffffffffffffffff000000000000000000000000606094851b811660208084019190915293851b81166034830152825160288184030181526048830184528051908501207fff0000000000000000000000000000000000000000000000000000000000000060688401529a90941b9093166069840152607d8301989098527f95c528b03328f4f58aa1a5f4b3e063c1f9cef5effb407486f970e41fe98d406f609d808401919091528851808403909101815260bd909201909752805196019590952095945050505050565b6000808273ffffffffffffffffffffffffffffffffffffffff168473ffffffffffffffffffffffffffffffffffffffff161415610e8e576040517f08c379a0000000000000000000000000000000000000000000000000000000008152600401808060200182810382526025815260200180610f5a6025913960400191505060405180910390fd5b8273ffffffffffffffffffffffffffffffffffffffff168473ffffffffffffffffffffffffffffffffffffffff1610610ec8578284610ecb565b83835b909250905073ffffffffffffffffffffffffffffffffffffffff8216610f5257604080517f08c379a000000000000000000000000000000000000000000000000000000000815260206004820152601e60248201527f556e697377617056324c6962726172793a205a45524f5f414444524553530000604482015290519081900360640190fd5b925092905056fe556e697377617056324c6962726172793a204944454e544943414c5f4144445245535345534669786564506f696e743a3a6672616374696f6e3a206469766973696f6e206279207a65726f4578616d706c654f7261636c6553696d706c653a20494e56414c49445f544f4b454e4578616d706c654f7261636c6553696d706c653a20504552494f445f4e4f545f454c4150534544a2646970667358221220acee8b0d6d9cc521503d0cb05007cc2b0dc4eb4ff6f6c39cf7ffa2baf173a8ae64736f6c63430006060033556e697377617056324c6962726172793a204944454e544943414c5f414444524553534553",
  "devdoc": {
    "methods": {}
  },
  "userdoc": {
    "methods": {}
  },
  "storageLayout": {
    "storage": [
      {
        "astId": 6007,
        "contract": "contracts/v2-periphery/contracts/examples/ExampleOracleSimple.sol:ExampleOracleSimple",
        "label": "price0CumulativeLast",
        "offset": 0,
        "slot": "0",
        "type": "t_uint256"
      },
      {
        "astId": 6009,
        "contract": "contracts/v2-periphery/contracts/examples/ExampleOracleSimple.sol:ExampleOracleSimple",
        "label": "price1CumulativeLast",
        "offset": 0,
        "slot": "1",
        "type": "t_uint256"
      },
      {
        "astId": 6011,
        "contract": "contracts/v2-periphery/contracts/examples/ExampleOracleSimple.sol:ExampleOracleSimple",
        "label": "blockTimestampLast",
        "offset": 0,
        "slot": "2",
        "type": "t_uint32"
      },
      {
        "astId": 6013,
        "contract": "contracts/v2-periphery/contracts/examples/ExampleOracleSimple.sol:ExampleOracleSimple",
        "label": "price0Average",
        "offset": 0,
        "slot": "3",
        "type": "t_struct(uq112x112)488_storage"
      },
      {
        "astId": 6015,
        "contract": "contracts/v2-periphery/contracts/examples/ExampleOracleSimple.sol:ExampleOracleSimple",
        "label": "price1Average",
        "offset": 0,
        "slot": "4",
        "type": "t_struct(uq112x112)488_storage"
      }
    ],
    "types": {
      "t_struct(uq112x112)488_storage": {
        "encoding": "inplace",
        "label": "struct FixedPoint.uq112x112",
        "members": [
          {
            "astId": 487,
            "contract": "contracts/v2-periphery/contracts/examples/ExampleOracleSimple.sol:ExampleOracleSimple",
            "label": "_x",
            "offset": 0,
            "slot": "0",
            "type": "t_uint224"
          }
        ],
        "numberOfBytes": "32"
      },
      "t_uint224": {
        "encoding": "inplace",
        "label": "uint224",
        "numberOfBytes": "28"
      },
      "t_uint256": {
        "encoding": "inplace",
        "label": "uint256",
        "numberOfBytes": "32"
      },
      "t_uint32": {
        "encoding": "inplace",
        "label": "uint32",
        "numberOfBytes": "4"
      }
    }
  }
}